:020000040000FA
:0600000077EF06F012008C
:06000800E4EF04F0120019
:060018002FEF05F01200BD
:06002A006C500CE1689629
:10003000040100513C0BE842E8420D0802E10ED8F1
:1000400001D022D808D0040E6C5C03E168962CD84D
:1000500002D0000E02D0010E00D01200D9CFE6FF70
:10006000E1CFD9FFE652040104BF046B0001726BBB
:100070006A6B6B6B706B716BC4EC01F0EED8E55280
:10008000E552E7CFD9FF1200020E00016A5D0AE1D6
:10009000A7D8040100BD03D0C80E006F02D0880E9F
:1000A000006F01D020D91200040E0001735D0AE137
:1000B0001AC46EFF6E50000803E2050E736F02D083
:1000C000030E736F00016A0512E113D8020E0001DE
:1000D000725D04E10401840E046F08D0040104BDC4
:1000E00003D0C80E046F02D0880E046F01D0FBD875
:1000F0001200D9CFE6FFE1CFD9FF020EE1260001C1
:10010000080E705D000E71590EE270C0DEFF71C006
:10011000DDFF725103E1010E726F04D0720502E13E
:10012000020E726F03D0080EDE6EDD6A04010493C6
:100130000491010EDB500413DFCF05F4000EDB50F9
:100140000001705F010EDB50715B200E6E6F040EBC
:100150006F6F000174A31ED0D9CFE9FFDACFEAFF99
:10016000EE50ED1016E06CC0F6FF6DC0F7FF080012
:10017000F5506EC0E9FF6FC0EAFFEF6E00016E2B15
:10018000000E6F236C2B6D23DF06010E01E2DB06F0
:10019000E3D71CD0D9CFE9FFDACFEAFFEE50ED105C
:1001A00015E06CC0E9FF6DC0EAFFEF506EC0E9FFDB
:1001B0006FC0EAFFEF6E00016E2B000E6F236C2BF9
:1001C0006D23DF06010E01E2DB06E4D7020EE15CDF
:1001D00002E2E16AE552E16EE552E7CFD9FF120093
:1001E000D9CFE6FFE1CFD9FF020EE126030E0401CD
:1001F0000015E76E010EE7CFDBFF01C4DFFFDE5025
:1002000000017027DD507123200E6C6F040E6D6F9E
:10021000D9CFE9FFDACFEAFFEE50ED1014E06CC061
:10022000E9FF6DC0EAFFEF506EC0E9FF6FC0EAFF63
:10023000EF6E6E2B000E6F236C2B6D23DF06010E0D
:1002400001E2DB06E5D7020EE15C02E2E16AE5527B
:10025000E16EE552E7CFD9FF12006D9800016B51B6
:100260000CE10401080E016F180E026F040E036FFB
:10027000840E006F0401046F35D0040118AF22D042
:100280000001705104011E5D0001715104011F59EC
:1002900004E21EC470F01FC471F02BDF0001010ED8
:1002A0006A6F0401080E016F180E026F040E036FCF
:1002B000800E006F0401200E066F040E076FC80E3B
:1002C000046F10D00001020E6A6F0401056BC80EA6
:1002D000046F0401080E016F200E026F040E036FFD
:1002E000C80E006F1200D9CFE6FFE1CFD9FFE6526A
:1002F000020E00016A5D36E16D50100B33E004011F
:100300000151026E036A080E021801E103502AE14E
:1003100000513C0BE842E8420D0824E10051800BFB
:1003200021E1180E026F040E036FDF6ADF50026EC8
:10033000036A080E025C000E035813E2DF50EA6AFB
:10034000200FE96E040EEA22EF50E66EDF50EA6AF3
:10035000180FE96E040EEA22E552E750EF6EDF2A2D
:10036000E5D70DD000016A6B0401080E016F180E6D
:10037000026F040E036F8C0E006F0401046BE552D4
:08038000E552E7CFD9FF12009E
:0803880004011851600BE8426A
:10039000E842E842E842E842000901E055D019513C
:1003A000070A51E00B0A4FE0070A40E0010A2CE07F
:1003B0000B0A28E0020A26E0030A22E0080A12E0FB
:1003C000010A0EE00F0A0AE0030A01E03CD0000136
:1003D000010E6B6F0001040E736F36D036D834D027
:1003E00090D832D00001010E6B6F0001750E6C6F5A
:1003F000000E6D6F000174930001010E706F24D028
:10040000A8D822D0F4D820D00001010E6B6F0401CF
:100410001C5100016C6F6D6B760E6C27000E6D2306
:10042000000174930001010E706F0ED00001010EE7
:100430006B6F04011C51EA6A760FE96E000EEA2226
:100440001AC4EFFF01D000D01200800E0401185D25
:1004500057E11B51030A34E0010A10E0030A01E0EE
:100460004DD00001010E6B6F0001400E6C6F0B0E42
:100470006D6F120E0001706F716B40D00001010EA4
:100480006B6F04011A51F66EF76AD890F636F7369C
:10049000D80EF6260B0EF7220900F5CF6CF00A00F5
:1004A000F5CF6DF0020E0001F76A6C25F66E6D5106
:1004B000F7220900F5CF70F00A00F5CF71F01ED0D9
:1004C0000001010E6B6F04011A51F66EF76AD890A5
:1004D000F636F736DC0EF6260B0EF7220900F5CFBE
:1004E0006CF00A00F5CF6DF06CC0F6FF6DC0F7FF41
:1004F0000800F5500001706F716B00D0000174832B
:1005000012000001010E6B6F0F0EE66E710EE66EAB
:100510000F0EE66ECFEC04F0E552E552E552010E07
:10052000E66E760EE66E000EE66ECFEC04F0E55257
:10053000E552E5521AC475F004011A5104E10001B4
:10054000050E736F05D00001060E736F48EC03F0C3
:1005500012000401206B216B040118511F0B020AC9
:1005600014E0030A0EE0010A01E033D00001010E9D
:100570006B6F04012081000174A102D0040120836B
:1005800028D00001010E6B6F24D00001010E6B6FAB
:1005900004011C510F0B080DF350036A000F026E8B
:1005A000040E03221C51800B01E0010E040DF350D8
:1005B000000102246E6F000E03206F6F6EC0E9FF12
:1005C0006FC0EAFFEF50040B03E00401010E206F3F
:1005D00000D000016B050AE10001200E6C6F040ED3
:1005E0006D6F000174930001020E706F1200040120
:1005F0001A0510E118511F0B00090CE10001010E52
:100600006B6F030E0401195D03E10001748102D0D8
:100610000001749104011A513AE118511F0B0208AC
:1006200036E11C510F0B000932E00001010E6B6F27
:1006300004011C510F0B080DF350036A000F026EEA
:10064000040E03221C51800B01E0010E040DF35037
:10065000000102246E6F000E03206F6F030E040171
:10066000195D07E1840E6EC0E9FF6FC0EAFFEF6E0F
:100670000ED01CAF06D06EC0E9FF6FC0EAFFEF6A74
:1006800006D0880E6EC0E9FF6FC0EAFFEF6E120061
:1006900000017A6B1E0E716E0401400E096F280E68
:1006A0000A6F040E0B6F880E086F0401680E0E6F40
:1006B000040E0F6F400E0C6F1200D9CFE6FFE1CF92
:1006C000D9FFE652FC0EDB50400805E2400EF36E07
:1006D000FC0EF3CFDBFFDF6AFC0EDB50DF5C19E2C0
:1006E000DF50E76EFD0EDBCFE9FFFE0EDBCFEAFF4A
:1006F000E750E926000EEA22EF50E66EDF50EA6A84
:10070000680FE96E040EEA22E552E750EF6EDF2A29
:10071000E3D7FC0EDBCF0DF4400E04010C170C7D6B
:10072000880E0C13E552E552E7CFD9FF1200D9CF5E
:10073000E6FFE1CFD9FF00017A6B040108BF30D09A
:10074000FC0EDBCF02F00951D880025403E2FC0E0C
:1007500009C4DBFF00017A6BFC0EDB507A5D19E205
:100760007A51EA6A280FE96E040EEA22EF50E66E2B
:100770007A51E76EFD0EDBCFE9FFFE0EDBCFEAFF1D
:10078000E750E926000EEA22E552E750EF6E7A2B99
:10079000E3D70401400E096F0817087D880E08137F
:0E07A00000017A5100D0E552E7CFD9FF1200D8
:0207AE00D9CFA1
:1007B000E6FFDACFE6FFE1CFD9FFE2CFDAFFE6527C
:1007C000E652FC0EDBCFDEFFDBCFDDFF010EDB50A0
:1007D000D76EDF50D66EE552E552E552E5CFDAFF2F
:0607E000E7CFD9FF120073
:0A07E60000EE00F00F0EEE6AEA626A
:0407F000FDD712001F
:0107F4000004
:0608000077EF06F0120084
:020806001200DE
:020808001200DC
:06080A000100F4070000EC
:080810007B0000000100000064
:020818001200CC
:06081A006DA60FD802D00C
:100820006DB613D80001730508E16DBA06D0686A89
:10083000696A69806988020E736F12006D6A696A5D
:100840006D860001010E736F12006D6A696A000106
:10085000736B120025EF04F00001735101E145D0E4
:100860006850040B04E06950040B01E043D86DB2FA
:100870003CD06850010B04E06950010B01E067D8DF
:100880006850100B04E06950100B01E02FD868503D
:10089000400B04E06950400B01E045D86850200B44
:1008A00004E06950200B01E040D86850020B04E0DE
:1008B0006950020B01E049D8030E0001735D01E2AB
:1008C00014D00001776B040E775D0FE26850080BBF
:1008D0000BE06950080B08E015EC00F0000901E19D
:1008E00068960001772BEFD700D0120069846898D2
:1008F0006D8212006D92699468A402D06894FCD74E
:100900001200000174A10ED06D926D840001080EDA
:10091000786F070E796F7807000E795B785179113F
:10092000FAE16D941200689C120070A00CD0800E49
:100930000401005D07E1840E0401045D03E104018C
:100940008C0E006F7090689A12006A6A12006A6AD0
:10095000686A9F0E6B6E7B0E696E6E6A0F0EE66E96
:10096000710EE66E0F0EE66E1AD8E552E552E552AC
:10097000160E706E68A608D0689600000000000091
:10098000000000000000F6D76D9873EC01F0000144
:1009900074910001756B0001030E736F1200D9CFC3
:1009A000E6FFE1CFD9FFFD0EDBCFE9FFFE0EDBCF87
:1009B000EAFFFC0EDB5004E0EE6AFC0EDB06F9D722
:0809C000E552E7CFD9FF120058
:0809C800DACFE4FFE2CFDAFF11
:1009D000E9CFE4FFEACFE4FFF6CFE4FFF7CFE4FF8F
:1009E000F5CFE4FFF3CFE4FFF4CFE4FFFACFE4FF69
:1009F00000EE00F0020EE80403E3EECFE4FFFBD7C5
:100A000000EE02F0020EE80403E3EECFE4FFFBD7B2
:100A1000E6529BEC05F0E55200EE03F0020EE8040E
:100A200003E3E5CFEDFFFBD700EE01F0020EE80493
:100A300003E3E5CFEDFFFBD7E5CFFAFFE5CFF4FF0A
:100A4000E5CFF3FFE5CFF5FFE5CFF7FFE5CFF6FF05
:100A5000E5CFEAFFE5CFE9FFE5CFDAFF1100D8CF18
:100A6000E4FFE0CFE4FFE46EDACFE4FFE2CFDAFFA9
:100A7000E652E552E5CFDAFFE550E5CFE0FFE5CFFE
:040A8000D8FF10008B
:0C0A84008A6A8B6A8C6A0E0EC16E936841
:100A9000946A956AF28CF28AF28ED50EE66E40EC7C
:100AA00006F0E552000EE66EE66AD7EC03F0E5527A
:100AB000E5521200D9CFE6FFE1CFD9FFE652060E8C
:100AC0000001735D03E36D50020B01E02FD0010EB6
:100AD000E66ED9CFE6FFDACFE6FF97EC03F0E552FA
:100AE000E552E55201080DE18282000EE66EE66AEB
:100AF000D7EC03F0E552E552DF50836E0001010EA2
:100B00007B6F00017B0512E104010CBF0FD0815007
:100B1000DF6E010EE66ED9CFE6FFDACFE6FF5DECC1
:100B200003F0E552E552E55200017B6BE552E552D8
:100B3000E7CFD9FF1200F2A402D08292F294120001
:100B40001201000200000008D80470F00100010248
:100B5000000109022000010100C032090400000266
:100B60000000000007050102400020070581024047
:100B700000200403090428034600650064006500A2
:100B80007200690063006F002000530061006E0076
:100B9000740061006E0064007200650061003A0339
:100BA00046006F0074006F006E0065002000520068
:100BB0006500760061006D00700065006400200033
:100BC0005500530042002000280043002900200067
:100BD0003200300030003800520B520B720B760B93
:020BE0009E0B6A
:0E0BE2000A0EF66E080EF76E000EF86E000199
:100BF0000900F550656F0900F550666F03E1656700
:100C000001D03DD00900F550606F0900F550616FCB
:100C10000900F550626F09000900F550E96E0900FE
:100C2000F550EA6E090009000900F550636F0900EC
:100C3000F550646F09000900F6CF67F0F7CF68F050
:100C4000F8CF69F060C0F6FF61C0F7FF62C0F8FF3F
:100C50000001635302E1645307E00900F550EE6EB2
:100C60006307F8E26407F9D767C0F6FF68C0F7FFCB
:100C700069C0F8FF00016507000E665BBFD7120070
:100C8000D9CFE6FFDACFE6FFE1CFD9FFE2CFDAFF37
:100C9000FD0EDB507F0BD56ED76AD66AF294FD0E3F
:100CA000DBAE02D0F28A01D0F29AD58EE552E5CFC2
:080CB000DAFFE7CFD9FF1200C3
:080CB80005D812D85AEC05F032
:100CC000FCD712000F0EC11292829284140E6F6E26
:100CD0000001736B0001746B0001756B42EF05F04E
:0E0CE0000DEC04F06FBE02D02CEC04F01200FC
:020CEE0013EE03
:100CF00000F023EE00F0F86A019CF1EC05F003EC43
:0A0D000004F05CEC06F0FBD71200D3
:020000040030CA
:0100000024DB
:010001000EF0
:010002003FBE
:010003001EDE
:010005008179
:010006008178
:010008000FE8
:01000900C036
:01000A000FE6
:01000B00E014
:01000C000FE4
:01000D0040B2
:00000001FF
